:020000040000FA
:2000000000500020F105000079FE0000050600009FFE00001D0600009FFE0000000000009B
:200020000000000000000000000000009FFE00009FFE0000000000009FFE00009FFE00004C
:2000400053B94AB9002908BF00281CBF4FF0FF314FF0FF3000F03CB882B0EC462DE9005013
:2000600000F01EF8DDF804E002B00CBC704700BF2DE9F041069C904606460F461D4600F01E
:2000800029F808FB01FCA8FB002300FB05C5B21A2B4467EB03038646C4E90023BDE8F0816F
:2000A0002DE9F843089E1746804689461D4600F067F900FB05F3A0FB074507FB0137B8EBED
:2000C00004043D4469EB0505C6E90045BDE8F883704700BF00292DE9F043C0F2A88000263D
:2000E000002BC0F29E8081468E4690469C46174604460D46002B3DD18A4259D9B2FA82F360
:200100003BB1C3F120029D4020FA02F29F4015439C40390CB5FBF1F01FFA87FE01FB10554A
:200120000EFB00F3220C42EA0545AB4209D9ED1900F1FF3280F00B81AB4240F2088102384A
:200140003D44ED1AB5FBF1F301FB13550EFB03FEA4B244EA0545AE4508D9ED1903F1FF3248
:2001600080F0F780AE4540F2F480023B43EA0043002203E08B420FD900221346341C18BFF6
:20018000012460424FF0000565EB45015840514000196941BDE8F083B3FA83F2002A40F03E
:2001A00089808B4202D3804500F2E2800123E5E712B90123B3FBF2F7B7FA87F8B8F1000F1D
:2001C0003BD1ED1B4FEA174C1FFA87FE0122B5FBFCF00CFB10550EFB00F3210C41EA054508
:2001E000AB4207D9ED1900F1FF3102D2AB4200F2C3800846ED1AB5FBFCF30CFB13550EFBA9
:2002000003FEA4B244EA0545AE4507D9ED1903F1FF3102D2AE4500F2AD800B4643EA00436B
:20022000ACE752426FEA060663EB43035BE7404261EB41014FF0FF3652E707FA08F7C8F1E6
:20024000200225FA02F34FEA174CB3FBFCF11FFA87FE0CFB113324FA02F205FA08F50EFB31
:2002600001F92A43100C40EA0343994504FA08F407D9DB1901F1FF3078D2994576D902390C
:200280003B44C9EB0303B3FBFCF00CFB10330EFB00F592B242EA03439D4207D9DB1900F1E9
:2002A000FF325FD29D425DD902383B445D1B40EA01428CE7C2F1200328FA03F10CFA02FCC6
:2002C00041EA0C0C4FEA1C402EFA03F1B1FBF0F51FFA8CF700FB151129FA03F30EFA02FEBB
:2002E00007FB05F943EA0E0E4FEA1E4343EA0141894508FA02F808D911EB0C0105F1FF33D0
:2003000032D2894530D9023D6144C9EB0101B1FBF0F300FB131107FB03F71FFA8EFE4EEAE1
:20032000014E774508D91EEB0C0E03F1FF3117D2774515D9023BE64443EA0543A3FB0889EC
:20034000C7EB0E0ECE4509D305D0002216E71046F7E613460AE794404445F6D2013BF4E733
:200360000B46E9E71046A1E71D46CEE7014688E7134603E7023B51E702383D443AE700BF5D
:200380002DE9F043002B44D18A42154604464FD9B2FA82F70E464FB1C7F12003B94020FAD4
:2003A00003F602FA07F50E4300FA07F42F0CB6FBF7F01FFA85FE07FB10620EFB00F1260CF7
:2003C00046EA0243994209D95B1900F1FF3280F0EE80994240F2EB8002382B44591AB1FB37
:2003E000F7F307FB13110EFB03FEA4B244EA01418E4508D9491903F1FF3280F0DA808E4545
:2004000040F2D780023B43EA004000263146BDE8F0838B4247D8B3FA83F6002E48D18B42CE
:2004200002D3824200F2CF8001203146BDE8F08312B90125B5FBF2F5B5FA85FCBCF1000FBE
:2004400078D1491B2F0C1FFA85FE0126B1FBF7F007FB10110EFB00F2230C43EA01418A42D6
:2004600007D9491900F1FF3302D28A4200F2BC801846891AB1FBF7F307FB13110EFB03FE82
:20048000A4B244EA0142964508D9521903F1FF3180F09180964540F28E80023B43EA004004
:2004A0003146BDE8F083002630463146BDE8F083C6F1200422FA04F5B3402B4321FA04F71B
:2004C0004FEA1348B7FBF8FC1FFA83F908FB1C7720FA04FE01FA06F509FB0CF44EEA05055F
:2004E0004FEA154E4EEA0747BC4202FA06F204D9FF180CF1FF3168D38C463F1BB7FBF8F4C2
:2005000008FB147709FB04F9ADB245EA0741894504D9C91804F1FF355DD32C4644EA0C44A1
:20052000A4FB0223C9EB0101994249D345D0204600266BE7CCF1200405FA0CF521FA04F364
:200540002A0CB3FBF2F61FFA85FE02FB163820FA04F701FA0CF10EFB06F90F433C0C44EA0B
:200560000843994500FA0CF407D95B1906F1FF3138D2994536D9023E2B44C9EB0303B3FBCF
:20058000F2F002FB10330EFB00F1BFB247EA0343994207D95B1900F1FF3721D299421FD93B
:2005A00002382B441746591A40EA06464EE7104614E7134627E70B4670E7B0409042B6D26D
:2005C000601E002622E7304620E7BC4294D9ACF1020C1F4491E789459FD9023C19449DE79B
:2005E0003846DFE70E46C8E70238294441E700BF034B40F20000C0F2000000688546184762
:2006000029060000044B1EF0040F0CBFEFF30880EFF30980184770477BFE0000014B00229E
:200620001A60FEE7580F002070B510F08DFB0EF03BFF144B144A934203D2002243F8042BFC
:20064000F8E7124A124B9A4206D1124B124C0025E41AA4101E4608E0043A10498B42F4D247
:2006600052F8041F43F8041BF7E7A54204D056F8253098470135F8E701F088F8BDE87040BD
:20068000FFF7C0BFC80B0020A43C0020A020010020050020AC0D0100AC0D0100480A002006
:2006A00000210B4682B013480122027000220192019A9A4203D200BF019A0132F7E7002218
:2006C000027001920198C3F5C872904203D200BF019A0132F5E74A1CB2F5487F08D0B2F527
:2006E000C87F86BFC1F54773033313461146DAE702B070470A20024010B5154B154C1B7869
:20070000236815485B6801219847236801211B6811480A4698470BF04FFF10480BF0E8FAF7
:2007200000B1FEE70FF0FCFB01F056FE01F022FEFFF7B6FF0DF064FB0AF02AFF0CF0A4FC11
:200740000DF046FAFFF7ACFFBDE8104007F098BEA03C0020D801001000400340A80E01005A
:2007600007B501F0D3FD00F01DFA02A8002320F8023D02214FF0FF320FF01AFC18B941F225
:200780003423ADF80630BDF8060000F0D7FA0821044800F011FD01F019FDFFF781FF03B008
:2007A0005DF804FB723300207FB50822002102A80091019110F0ADFA082102A800F0FCFC72
:2007C000284D9DF80F309DF80E40EE6A43EA04244AF6CD310220B04721460320224CB047FA
:2007E0006B6B0B2002A9082298472368022B07DD1E481F491F4A02F0A3FE1F4802F0A0FEE7
:20080000AD6A01206946A8472368022B08DD18491648184A02F094FE1848009902F090FE47
:20082000022001A9A84730B92368022B03DD1448019902F085FE2368022B02DD114802F02F
:200840007FFE2368022B09DD09490848094A02F077FE0D4B0D48198802F072FEFFF720FF5C
:2008600004B070BD140F0100400700200C1C01001B1C0100201C01002E1C0100501C0100B6
:200880005F1C0100791C0100E22D00206E1C010010B5104A86B001AB92E8030083E80300A0
:2008A000194603A80BF024FB04460E2100220BF023FC012010F050FA0E21012220460BF041
:2008C0001BFC4FF40C7010F047FA20460BF0E0FB06B010BDAC0D010030B50B4D89B003AC63
:2008E000FFF7D6FF0FCD0FC42B6803A9684623600BF0FEFA0446B9210FF0E2FA20460BF0BB
:20090000C7FB09B030BD00BFB40D010010B50D4B1B6843B10C4B4FF480721A600B4B0022DC
:200920001A6001F0F1F90A4B1B6823B1BDE81040084B1B681847084B14201B68BDE810408D
:200940001B6A1847A000244304200940A002244380002443E8120020B001001010B58CB073
:2009600008F078F90446684607F0AEFE6B461349002203A807F0D8FF03A807F085FF104B4A
:200980001B6803B9FEE71B6D0E4A136003B9FEE714200D490EF078FA0C4B24211B68012005
:2009A0001B6898470A4A2046136823F4E02343F44033136008F056F90CB010BD25FF000075
:2009C00008ED00E0E81200200D0900008401001000200940024B01221860024B1A607047AE
:2009E0001C200940A0022443014807F0C7BF00BFEC1200207FB503A807F066FE002203ABBC
:200A0000114912488DF80C20049207F08DFF01A807F0C6FF029B0E4ADB09013B13600F203C
:200A20000C490EF031FA0C4B1A6842F002021A601A6842F002021A601A6842F005021A6048
:200A400007B05DF804FB00BF67FF0000EC12002014E000E055FF000010E000E038B501F072
:200A60002DF8B8B10FF061FA044601F02FF8231A002B03DB00F0B2FF00240DE0041B07F01E
:200A800097FFC20111480023A4FB0001FFF7D8FA044601E04FF0FF3400F038F8054607F01A
:200AA00087FFB5FBF0F0A042014628BF214641B14B1C08D0064807F065FF054807F0F2FE9B
:200AC00001E0084638BD012038BD00BF40420F00EC120020014B1868704700BF08200940BB
:200AE0001FB50DF08DFF01A80DF0D2FF0123002001A98DF808308DF809000DF0A9FF024BF7
:200B0000186005B05DF804FB1013002007B50D4B186810F0010012D0684607F041FF0A4B60
:200B2000019A1868094BA0FB03010023FFF788FA40F2DC5398428CBFA0F2DC50012003B0F4
:200B40005DF804FB08000840040008400048E80110B5064C4FF47A7120680DF0A5FF0146BF
:200B60002068BDE810400DF09BBF00BF1013002070B5094C236873B1084D26682878B047FC
:200B800023689E4207D1064B2946BDE87040186801220DF08BB970BD141300202E35002022
:200BA0001813002070B50F4E8AB03578BDB901A80DF06EF94FF4E13307930B4B0124284624
:200BC00001A904938DF804408DF805508DF819408DF818400DF03CF9044B347018600AB01F
:200BE00070BD00BF2F350020710B0000181300200A4606490346097821B105490868194666
:200C00000DF058B94FF0FF30704700BF2F3500201813002008B5054905480BF069F9054B0E
:200C200005491860BDE808400BF098BA20060020201300201C130020A1FF000070B50646BB
:200C40000BF092FA0446064D214628680BF0AEF904F4E02128683143BDE870400BF066BA6A
:200C60001C130020F8B51C4D0C462F6806460BF07BFA014638460BF099F904F00303012BF2
:200C800006D0022B154B14BF4FF000421A4600E0134AE10648BF42F04042230615D504F057
:200CA0000C04082C08D00C2C0BD0042C0DD142F0004242F4C02208E042F0004242F4A02217
:200CC00003E042F0004242F4E022286832430549BDE8F8400BF070BA1C1300200040008021
:200CE00000200080006007400346064A1268C240D2074CBF044A054A1068D84000F0010096
:200D0000704700BFD020024080200240C020024010B5094B9C6893E80300A0EB711281EA13
:200D2000F430D96818600C4410441144D8605C60996080B210BD00BF2C130020064B074A31
:200D400010B51A60D860986058601424FFF7E0FF013CFBD110BD00BF2C130020ED5EEAF145
:200D60007FB503A80AF074F800238DF8103003930D494FF0FF33059301234B804FF44002DD
:200D80000023CDE90023094803AA094B0AF064F8084B1880033080B201288CBF00200120AA
:200DA00007B05DF804FB00BF6C060020C80B0020B90D0000E02D002038B51446002302F491
:200DC0000002134302D0094801F0D4F804F48004002554EA050307D0054B01221A700348D5
:200DE000BDE8384001F0C6B838BD00BF240600203135002038B50B4B5C88013CA4B2012CFC
:200E00008CBF002401245CB140F20442064D5A800648B5F9001001220AF05EFA00232B803D
:200E2000204638BD6C060020E02D0020C80B002010B5084C4FF0FF31012220460AF05AFA46
:200E400020460AF003FA044800F04AFE034B0020187010BDC80B00203C1300203035002007
:200E6000034602490248034A09F060B95C060020C80B002034060020F7B5FFF7BBFF0746BD
:200E80000424144D012300226B800023CDE900231148134629460AF0C1F9002100F00F00A7
:200EA00050EA01032E4609D040F609026B889BB2934203D1013C14F0FF04E2D10FB1FFF7D0
:200EC0004FFF708880B2B0F5806018BF012003B0F0BD00BFF8060020C80B00202DE9F041A6
:200EE00086B003A809F0B4FF19494FF0FF32012400260027002305924C801648CDE9006720
:200F000003AA8DF81030039309F0A6FFC31C9BB2A342054617D9FFF76DFF294680463246D0
:200F20000C483B460AF072F90446B8F1000F01D0FFF716FF04F00F00002150EA01030CBF6C
:200F40000120002000E0204606B0BDE8F08100BF10070020C80B0020F0B5194F87B07B880E
:200F60000546013B9BB2012B01D8002025E003A809F06EFF4FF0FF33059301244FF44002AF
:200F8000002300267C800F48CDE9002339460E4B03AA8DF81060039609F05EFF0B4B188085
:200FA000033080B2A04207D9002DDED0084B09481C7000F0DFFFD8E7204607B0F0BD00BFE9
:200FC0006C060020C80B0020B90D0000E02D0020303500202406002010B50C4A5388013B98
:200FE0009BB2012B0FD840F20443094C5380B4F90010012207480AF06FF9002383382380DE
:2010000018BF012010BD002010BD00BF6C060020E02D0020C80B002070B5038805460C4660
:201020003BB1B3F5297F08D000230380032070BD1ED04FF429732B8003E0822903D0882C19
:2010400001D0012070BD264B1A787AB100221A70FFF75EFE4FF4A063B0FBF3F101FB130061
:2010600081B201F5AF411F480FF005F8822C1DD1FFF76EFD01F034FC01F0C6FB1A4B80211E
:201080001B699847194B04461A7832B100261E70FFF7A2FF3046FFF75FFF002CC8DDA0B292
:2010A00001F096FB124BDB689847E1E7882CC0D10C480EF0F2FF0028BBD0FFF729FE0446C5
:2010C000FFF7DAFE4FF4A062B4FBF2F302FB134189B2044801F5AF410EF0CDFFA9E700BF92
:2010E000303500203C130020140F010031350020C4190100144B30B51A1DC3F84C020021CF
:2011000000241470902404FB01346579032905F0FC0560F3830565714FF08404548001F101
:2011200001010CBF084C02F18C04042942F8044C02F19002E4D10022C3F84032C3F84422AA
:20114000C3F84832014830BD4C1300208C15002038B500250A4C05F10800D4F84C222044E0
:2011600000210FF0D6FD631990350022B5F5107F1A71EFD1C4F84042C4F8484238BD00BF5D
:201180004C130020014BD3F8480270474C13002038B5084C0021D4F84852D4F84C2205F141
:2011A00008000FF0B6FD00232B712B68C4F8483238BD00BF4C130020082910B516D80023B3
:2011C0008B4205DA0B4AD25CFF2A03D10133F7E7094C00E0074C00238B4205D04A1ED21A30
:2011E000A25CC2540133F7E7002010BD4FF0FF3010BD00BFC83F0050F012005038B5212803
:2012000094BF04461A24114DB5F8C630A3421AD0C823634303F5522303F695334FF47A7037
:20122000B3FBF0F10A4A89B202FB01331B04B3FBF0F3084A9BB2D1811382FFF71DFE18B947
:20124000A5F8C64038BD002038BD00BF9C15002018FCFFFFF806002070B51B4B5A881C4652
:2012600092B2022A20D05B889BB2012B05D00020FFF772FE18B1C0B224E0002500E00125ED
:201280000EF051FE064663889BB2022B04D063889BB2022B13D108E00EF045FE6FF03F0369
:2012A0009B1BC342EFD4F2E70025084BD3F8CC000AF03CF8044625B1FFF78EFE01E00120F6
:2012C00000E0204640B270BD6C0600209C15002013B50C46019100295BD011285BD8DFE813
:2012E00000F009105A5A5A5A29363A5A5A5A5A5A4447494E2A4B93F8C830003318BF0123DA
:2013000015E0284AD389128A9BB291B24FF47A7253434A43A3F5522302F57F42FF32A3F6FD
:20132000953303EB2243C822B3FBF2F3DBB22360002033E01A4B01AAD3F8CC001A4B196845
:201340000EF06BFE48BB019B1B687F2B09E0144B93F9C430EBE7FFF77FFF2060019B1B68AD
:2013600080330CBF0320002018E00020086015E02123DCE70C4B1B6893F90030D7E70B4B86
:20138000094A1B68126803EB8303134413F9053CCDE7022002E0012000E0032002B010BD8A
:2013A0009C150020F8060020B4190100B019010010B5054C94F8C83023B1FFF739FD0023E9
:2013C00084F8C830002010BD9C15002010B5FFF7D9FE034600241A791B68023A012A98BF08
:2013E00001348342F7D114B1024800F0C3FD204610BD00BF240600207D2908B50A46034634
:2014000005D8194603480FF05EFC002008BD012008BD00BF9E1500202DE9F041884607462D
:20142000FFF7B0FE05460EF07EFD04462B79022B04D02E79F6B2032E07D037E00EF073FD79
:201440001C4B1B1BC342F1D4F3E72C89012C04D8FFF79EFE0020BDE8F081023CA4B24445A8
:20146000F6D80A352246294638460FF02CFC295704200D460A29A8BF0A25EDB289B201F058
:201480007BFA69B26FF063039942B8BF194664316E23C1EB012191FBF3F1304689B201F040
:2014A0006BFAFFF775FE2046BDE8F0814FF0FF30BDE8F081FAFEFFFF10B50B4B5C88A4B213
:2014C000022C0FD1FFF7C8FE10F1800F06D0074B93F9C4308342CCBF00240124631E584256
:2014E000584110BD002010BD6C0600209C15002010B5094C94F8C8304BB9FFF729FE012056
:20150000FFF72AFD012320B984F8C83010BD002010BD184610BD00BF9C15002010B50C46B1
:20152000072805D8DFE800F0061104042E04152B012010BD012904D1FFF7DAFF10B30320B5
:2015400010BD09BBFFF734FF1CE088B2FFF756FEF4E70E4B62B219680D4B91F900001B6823
:20156000904211DC03EB83030B4413F9053C93420ADB084BD3F8CC000EF041FDDEE7054BA7
:2015800083F8C410002010BD022010BDB4190100B01901009C1500207D2808B513D80B4B14
:2015A0005A8892B2022A0ED0094A011D023080B2117018820021DA615170FFF78FFC00303D
:2015C00018BF012008BD012008BD00BF100700209C15002030B5214D89B0D5F8CC40002C10
:2015E00037D1A62385F8C4301D4B85F8C8401A8B022022F0070242F002021A831A8B42F030
:2016000008021A8340F262321A84052283F82420FFF770FD134A937F5BB2C3F5FF630733A6
:201620009BB2138305F1B8039062D36201A809F06FFE4FF4FA6301A80193FFF711FCC5F843
:20164000CC0040B11A20FFF7D9FD0748214600F079FC002000E0012009B030BD9C15002014
:20166000340600206C0600202406002008B50C4B5B889BB2022B11D0FFF7EEFD10F1800F71
:2016800007D0084B93F9C4308342CCBF0020012000E00220B0FA80F0400908BD002008BD00
:2016A000100700209C150020F0B5164A164B52F8201C52F81CCC52F8187C52F8146C52F812
:2016C000105C52F80C4C12E9014019600F49C3F804C09F60DE601D615C619861C3F81CE048
:2016E00020338B4202F12002E1D1094B094A1A62094A5A62094A9A62094ADA62094A1A6323
:20170000F0BD00BF1C13010000C00021A0C6002180C60021603953632010101A136F236EA2
:2017200011161216546B007008B54FF46C72134813490FF0C8FA134B00221A70012203F8AD
:20174000172C022203F81B2C032203F8192C04229A770522DA76062203F80F2C072203F84B
:20176000432C082203F8232C092203F8202C0A2203F8582C044A1A6308BD00BF1C040021D9
:201780004C0F0100900300214D06002138B5634CFEF7B2FFFFF72EF90EF084FC00F050FBAD
:2017A0005F48002100F0CEFB00F022FAFFF798F90EF060FC00F0EAFBFEF7D2FF00F016FE1C
:2017C00001F020F900F0B4FA2368022B07DD55485549564A01F0B4FE554801F0B1FE23687F
:2017E000022B09DD50494F48504A01F0A9FE514B5148196801F0A4FE2368022B09DD4A49FA
:2018000048484A4A01F09CFE4C4B4D48196801F097FE2368022B09DD43494248434A01F0B4
:201820008FFE484B4848196801F08AFE2368022B09DD3D493B483D4A01F082FE43484AF694
:20184000CD3101F07DFE2368022B08DD36493548364A01F075FE3E481A2101F071FE2368F5
:20186000022B09DD30492F48304A01F069FE394B3948198801F064FE2368022B07DD29488D
:2018800029492A4A01F05CFE344801F059FE2368022B02DD324800F04DF92368022B02DD75
:2018A000304801F04DFE08222D492F480FF00BFA2E48002100F046FB4FF0FF3002F016FC1F
:2018C00023680546022B07DD16481749174A01F037FE274801F034FE2368022B05DD0DB1F2
:2018E000A81C00E0284600F015F92368022B02DD1C4801F025FEFEF757FF1E480EF0A9FB76
:201900000EF03AFB00F0B4FA0446FFF721F914F0FF0FF7D10EF0C5FAF4E700BF4007002004
:20192000300700200C1C01001B1C0100B51C0100BA1C0100F0190100E21C0100E019010043
:20194000F11C0100C4190100FC1C0100071D0100211D0100E22D0020411D01004E1D010024
:2019600072330020791C0100A736002024080020631D0100401A010010B50446FFF7AAF840
:2019800094E80C001344C01A024B98428CBF0020012010BDFEFFFF7F10B50E4C236813B91D
:2019A0000D4A136010BD0EF0C0FA216891E80C001A44131A8A6842B192E812002144091A46
:2019C0008B4228BF0B469268F5E71844024B186010BD00BF6C16002070160020014800F0FE
:2019E000C9BA00BF30070020F8B5038805462BB1592B09D0002303800320F8BD1E4A136039
:201A000059232B800120F8BD872920D08229F7D1194F00263C68002CF2D020460EF051FBE6
:201A200090B1E0688821224600F064FA50B9E060A3680EB1B36000E03B600023A360FFF701
:201A4000ABFFE5E7FFF7CAFF2646A468E3E70A490B680BB90B60D3E7D868904201D19B6879
:201A6000F7E70B6099680029CAD0C86890420ABF89680B469960F5E76C16002010B50446C6
:201A8000FFF7ACFFE3680B4A4BB113683BB1A34203D1094A1268DA6007E09B68F6E7064BCA
:201AA0001B68E36013681460A360BDE81040FFF773BF00BF6C1600207C160020024B186871
:201AC000003018BF012070476C160020024B186808B1024B186870476C1600207016002033
:201AE00010B50B4A04461368984206D18368136008E09A68A24203D01346002BF9D103E026
:201B0000A2689A60FFF748FF0023A360E36010BD6C16002000B58BB002462821684604F089
:201B20008DFC6946024801F00BFD0BB05DF804FB931D010038B5054620B90A48BDE83840EA
:201B400001F0FEBC0024295D0748013401F0F8FC082C05D0E307F6D4044801F0F1FCF2E707
:201B600038BD00BFAF1D0100C01D0100BE1D0100F8B50388064615462BB14A2B15D00023F2
:201B800003800320F8BD17480EF0E9FA04462CB1201DA1680EF06FFA2468F8E7124B0122EB
:201BA0001A704A2333800120F8BD8829FBD10D480EF0D5FA0446002CF3D0231D9D420ED1CF
:201BC000084821460EF0D5FA084B62691F681A60A2691D460AB1E06990472F60E1E7246836
:201BE000E9E700BF74160020323500207C16002010B5064B002406481C700EF0ADFA214653
:201C0000BDE81040034800F09DB900BF32350020741600204407002070B50446E3610B4BDA
:201C2000049D1B786561A26143B1094D094B2E68201D2B600EF01FFA2E6000E0A1602146BE
:201C4000BDE8704004480EF0A8BA00BF323500207C160020440700207416002013B5034C5F
:201C600024680094FFF7D8FF02B010BD7C16002070B5094B05461B783BB1084C084B2668CE
:201C8000043023600EF000FA26602946BDE8704004480EF082BA00BF323500207C160020CD
:201CA000440700207416002010B5084B04461B781BB10430FFF714FF01E0C3600361214642
:201CC000BDE8104002480EF054BA00BF323500207416002010B50A4B04461B7823B1BDE859
:201CE000104004300EF0D9B906480EF038FA18B1A04203D00068FAE7012010BD002010BDB0
:201D0000323500207416002010B5084C206858B100232360816843689847236823B1BDE8CB
:201D200010401868FEF756BE10BD00BF78160020034A9179D379034A03EB01231380704744
:201D400072330020E22D002038B5836804460D469BB10A4804600220A07304F10C00984703
:201D60000238012801D9832D05D120462146BDE8384000F005B80123A37338BD7C16002028
:201D80002DE9F8431C4A0446156889462B4690461A4E3768A34204D00BB11B68FAE7BDE82A
:201DA000F88334B3A37BABB10023A37345B1AC4204D02846872122460EF076F92D68F5E7FA
:201DC000A3683BB14C4505D0346004F10C0083212A469847D8F800309C4203D12268064B91
:201DE00005E0134623B11A68A242FAD122681A603760BDE8F88300BF801600207C160020BE
:201E000010B5094B00221A70084B1C685CB1E37B3BB101230022A373E27320468221FFF71F
:201E200093FF2468F2E710BD3535002080160020024B1878421C1A70704700BF36350020D8
:201E4000064B8A221A70064A00231370054A1370054A1360054A1360704700BF36350020AE
:201E60003335002034350020801600207C1600202DE9F0411A4D2B780BB1FFF7C1FF194CC1
:201E800022783AB3184E0C213378184F5943781817F8018001334768806803F01F03013A3F
:201EA0003370227068B9124B1E689EB12B780BB1FFF7A6FF304641463A460EF0F5F836689A
:201EC000F3E7B8F1810F04BF0123837341463A460EF0EAF82B7820781844BDE8F08100BFBF
:201EE0003535002034350020333500208416002080160020F0B50B4E3378202B0FD00A4CAE
:201F00000C252478094F1C4404F01F046C4301333D19A86039556A6033700020F0BD0120FB
:201F2000F0BD00BF34350020333500208416002038B5034C25680EF0B7F8256038BD00BFBB
:201F40007C16002010B50A4609490C68234683420DD00BB11B68FAE748B1046008600121E2
:201F6000817383818121BDE81040FFF7E1BF10BD8016002038B1837B013B012B9FBF024AC0
:201F80000123C373137070473535002007B50A4B01AA1A60094B0193019B934204D2591C49
:201FA0000191CD211970F7E705480021FFF7CAFF03B05DF804FB00BF14180020A83D0020F6
:201FC0005407002038B5FEF7C3FD0C4C23780C4DCD2B06D0AC4204D20134F7E7AC4203D230
:201FE00001342378CD2BF9D0FEF7B2FDAC4202D20348001B38BD4FF0FF3038BDA83D002027
:202000000050002070B5038805462BB1912B0BD000230380032070BD1B484FF4A0610EF047
:202020002AF891232B8003E017480EF036F808B9012070BDFFF7C6FF144C154B061EA3EB75
:20204000040401DB002C0ADA124B1B68002B16DD11481249124A01F073FA12480BE0A642F3
:202060000DDD0C4B1B68002B09DD0B480B490C4A01F066FA0C483146224601F061FA024874
:202080000EF002F8CDE700BF04180020A83D002000500020400700200C1C01004B1E01002A
:2020A0004F1E0100551E01007F1E010010B5044690F84C308021013380F84C30064A23460B
:2020C0002030FFF7CBFD054B2246BDE8104000201978FFF70FBF00BFAD20000037350020B8
:2020E00070B503880446BBB1D52B03D000230380032070BD822911D10DF056FFBFF35F8F32
:20210000104B00221E681A60BFF35F8F0DF04EFF0D4D55F8040F18B9D5232380012070BDE4
:2021200090F8453026FA03F3DB07F2D5FFF7D2FD0028EED028680221044A0346FFF78EFD6D
:20214000E7E700BF24180020BC05002069210000034A1368184310600248FFF70BBF00BFCF
:20216000241800206407002070B50446FFF7B2FD20B304F120063046FFF7ACFD05462046B0
:202180000DF0B7FF01280CD1C5B100253046234684F84C507E210A4AFFF760FD2846094BEC
:2021A00006E058B955B93046FFF77EFD2846064B2246BDE870401978FFF79CBE70BD00BFEA
:2021C000AD20000039350020383500202DE9F041FFF72EFE1F4B204E1870FFF729FE1F4BC7
:2021E0001870FFF725FE1E4B002218701D4B1F469A601D4A5A60316821B38B6C91F8458091
:2022000043F08C0506F026FD184A0124136804FA08F123EA0103136006F024FD3368294643
:2022200093F84500FEF71EFD336893F84500FEF705FD56F8043B93F845309C40BB681C4371
:20224000BC60D8E70A48FFF77DFEBDE8F041054800F0AAB839350020C0050020383500206B
:20226000373500201818002051210000D02002406407002038B5058804466C2D09D07E2D72
:202280002ED0002D32D1FFF7D3FD1B4B18701B4B1D601B480DF050FF431C01D16C231DE00D
:2022A0000A28164B07D01A687E2AF2DC511C1960144B9854EDE7196800254A1C1A60114AD6
:2022C0000D4B555428461978FFF714FE0E4B852118682A46FFF70EFE20B97E23238009E0FF
:2022E000852907D1054B00221A60D2E700230380032038BD012038BDBA3500203018002068
:2023000028180020BB3500207C16002008B50548054980220DF009FFBDE808400348002143
:20232000FFF710BE281800203A35002074070020C3070BD5064B5A781B7803F1804303F540
:2023400008330AB1002200E001221A70704700BF801C0100C30709D5054B5A781B7803F174
:20236000804303F5083302B101221A70704700BF801C010038B50A4B01241D7806F06AFC9C
:20238000084904FA05F30A6822EA030213430B6006F068FC2046BDE83840FFF7DBBF00BF86
:2023A000801C0100D0200240014601480DF0F5BE3418002038B5054606480DF0D0FE044607
:2023C0003CB1A068284002D0636803B198472468F6E738BD3418002008B503480DF0BCFEE7
:2023E000BDE80840FEF716BC3418002008B504480DF0F5FEBDE8084002480DF0F0BE00BF23
:20240000900700208407002001480DF030BF00BF8407002038B50E480DF0F1FE0446A8B1E9
:202420000C480DF0ECFE0546206028B9214608480DF0F9FE284638BD00F0EEF905F19C013D
:20244000A5F8800005F1820000F070FA204638BD840700209007002010B50446074821460B
:202460000DF0F7FE48B1216805480DF0DCFE2146BDE8104001480DF0D6BE10BD8407002016
:202480009007002010B50446094821460DF0E1FE68B12468B4F88010204600F031FA04F18B
:2024A000820004F19C01BDE8104000F051BA10BD8407002030B1054B9B68C01A044B8010B3
:2024C000584370474FF0FF30704700BF9C070020ABAAAAAA38B50D4D002818BF05460C4875
:2024E0000DF03DFE044668B12846211D0DF039FF20B12046BDE83840FFF7DCBF20460DF018
:202500006BFEEFE74FF0FF3038BD00BF041C01005818002080B161B1C3684068CB1A93FB20
:20252000F0F14B1C07D0054B0C209B6800FB01307047084670470020704700BF9C070020BC
:2025400090B171B1C368CB1A416893FBF1F35A1C09D0064AD35C026843FA02F000F0010095
:202560007047084670470020704700BF6B36002050B10368072B06D8044A52F823301B1AAC
:202580005842584170470020704700BF1C19002038B504460D46FFF7EBFF08B1A5600AE054
:2025A000064A1368072B07D8591C1160044A2360A56042F82340012038BD00BF3C1900209C
:2025C0001C19002038B505460A480DF0C8FD014628460DF07CFE044628462146FFF7B0FF6A
:2025E00028B928462146BDE838400DF081BE204638BD00BF581800202DE9F0470F469146A9
:2026000098460646002835D04B4B002908BF1F463846FFF75FFF421C05461BD1474D28460F
:202620000DF0EDFD0446002872D14846414605F0B7FD00286AD0FFF74DFF431C1CD0AB683E
:202640000C2505FB00353E4B1A5CADB1002A5BD01C5459E07468F36804FB0534726820460A
:2026600000210EF056FB31462246012335480DF012FE5DE004465BE033480DF070FD002492
:202680000546A046C5B12846FFF714FF2C4B1B5C6BB92C4A125C22B1D10748BF01335210DE
:2026A000F9E70CB1434502DA73B32C46984628460DF092FD0546E5E744B30025234B53F8BD
:2026C0002580B8F1000F11D0D8F80890B9F1000F0CD0214640460DF0FAFD824640465146F9
:2026E000FFF72EFF012801D15046C8470135082DE4D12046FFF7DEFE124B00221A5421466B
:2027000011480DF036FD03E02C46D6E700240FE021460D480DF041FD2046FFF7CBFE0546A4
:202720003946201D0DF01AFE6B1C93D1002495E72046BDE8F08700BF041C01009C07002018
:202740005B3600206B360020581800201C19002070B505460C4600232946224605480DF01C
:202760009AFD064629462246002303480DF093FD304670BD6B3600205B36002003460A46F6
:202780000248194601230DF086BD00BF5B36002003460A460248194600230DF07CBD00BF62
:2027A0005B36002010B508490B888342A1BF074C80B222881218A1BF181A08802280012064
:2027C000B8BF002010BD00BF4433002070330020014B1880704700BF44330020004870478C
:2027E00040190020014B1888704700BF44330020034A044B10781B781844C0B2704700BF6C
:202800007B3600207033002008B5FFF7F1FF014B184408BD4019002070B50D4D0D4C2A7821
:20282000238806461344802B0FDC0B490EF04BFA2B781E44FFF7E8FF2288014630460EF0D6
:2028400042FA28782388184470BD002070BD00BF7B360020443300204019002008B5FFF7C8
:20286000C7FF024B1B88184480B208BD4433002010B50446FFF7F2FF2318802B0FDC0138B8
:2028800080B202B2002A04DB064B995C23449954F5E7054B187820441870012010BD0020F9
:2028A00010BD00BF401900207B36002038B5094D094C00211A2209480EF02BFA2846214604
:2028C0000DF04CFD05F108002146BDE838400DF045BD00BF60330020041C01004633002005
:2028E000044A00231380044A1380044A1370FFF7DDBF00BF70330020443300207B360020A6
:2029000038B50C460546FFF7EBFF802C28BF80242946224603480EF0D6F9034B20461C80D7
:2029200038BD00BF401900204433002010B50C461A2205490EF0C7F92046BDE810400349CD
:2029400010220EF0C0B900BF4633002060330020034610B50C461A22194605480EF0B3F9D1
:202960002146BDE81040034810220EF0ACB900BF4633002060330020024B23F81010012067
:20298000704700BF46330020014B33F8100070474633002008B5044B0D3803EBC0000DF055
:2029A000DDFC012008BD00BF60330020024B0D3803EBC000704700BF6033002001480249E9
:2029C0000DF0CFBC68330020041C010070B505460B480E460DF0C3FB044678B1012D04D14B
:2029E000A3683BB13046984703E01DB963680BB1984718B920460DF0EFFBEDE770BD00BF8E
:202A0000C0190020054B10B51B689847044B5B689847BDE81040034B5B681847140F0100CC
:202A2000C4190100E0190100084808B5FFF720F90748FFF7C7FD014630B10B7A04485B083D
:202A40000B720DF055FCF6E708BD00BFC4190020A8070020014601480DF061BCA807002005
:202A6000F8B531F0020307460E4615462FD1184839460DF054FC044650B9234614483946C4
:202A80000922FFF7B9FD044608B30DF084FCA0800DF04BFA237A20602B44102BA8BF10231A
:202AA0002372022E204608BF0C350DF062FCED01002814BF0A221922ADB25543A188C2F165
:202AC000640301FB03556423B5FBF3F5A580F8BDA807002038B505460420FFF755FF29465E
:202AE00084B20F480DF01BFC034658B929460C480922FFF781FD054680B1C4800DF04BFC75
:202B0000A88038BD0A2224B25443B0F906105A2202FB0142642192FBF1F2C28038BD00BF99
:202B2000A807002010B50748FFF74CFD044640B121460448FFF70CFE214602480DF0D8FB04
:202B4000F4E710BDA807002010B500210548FFF71FFDBDE8104004484FF4E131034A0023B3
:202B6000FFF77CB8A8070020C4190020292A000070B50DF0DAF9044600260F4D0D2005EB2E
:202B80000615FFF713FF29460DF0EBFB78B10720FFF7FAFE2B7B834201D0002070BDA868E9
:202BA000201AB0F5206F8CBF0020012070BD0136102EE2D1F1E700BFA41A002070B5002507
:202BC000154C0D20FFF7F2FE04EB05110DF0C9FB691C10B910290D46F2D14D1E04EB0111B2
:202BE000A1F110063DB12039304610220EF06BF8013D3146F4E70720FFF7C6FE20730DF0DC
:202C000094F9A0600D20FFF7D1FEBDE87040014601480DF0A3BB00BFA41A002030B591B032
:202C2000054600F063F84FF6FF73984202D14FF0FF3052E04022684600210EF06AF8284BF6
:202C40001A782AB901221A70FEF762F8254B18707DB10720FFF798FE58B9224C23780BB94C
:202C60000123237007202178FFF786FE237801332370FFF7A3FE6A46C1B21B480DF000FCEB
:202C8000FFF79CFE28B1FF238DF800308DF8013006E00E20FFF78AFE014668460DF05EFB61
:202CA0000D20FFF783FE014602A80DF057FBFFF7ABFD0E90FFF796FD0F9068460DF0D1FC54
:202CC00004464DB1FFF7D4FD0028B0D0FFF786FD014668460DF00FFD204611B030BD00BFF3
:202CE0007D3600207C36002089290000014B1888704700BFF80900202DE9F041012986B053
:202D000006460F46144640F3868003A90DF03CFD04F1100003A90A220DF0D5FF9DF8113019
:202D20000BB1B51C02E0B378F51CA37603A801A902AA0DF0EDFB9DF81380B8F1000F23D016
:202D4000029B23B16A7815F8023B03EB0223B8F1020FA38309D1204631490DF0FFFA6B7850
:202D6000237015F8023B637014E0B8F1030F11D105F108021346611E13F8010DAB4201F83B
:202D8000010FF9D1154605E0204625490DF0E6FAA4F81C809DF81580B8F1000F2BD0019BB7
:202DA00053B16A7815F8023B03EB0223029A9BB2E3831AB9A38301E0A38BE383B8F1020F59
:202DC0000AD104F1080016490DF0C8FA6B78237215F8023B637215E0B8F1030F12D1083596
:202DE0002A46E31D04F10F0112F8010D03F8010F8B42F9D106E004F1080009490DF0AEFACA
:202E0000A4F81E80AE1BBB1BE363A563BE42D4BF3046002000E0002006B0BDE8F08100BFD7
:202E2000041C010070B505460C46102C07D92B68686808491022984750B9103CF5E734B1B8
:202E40002B6868682246BDE8704002491847204670BD00BFFC1E01002DE9F04F80468FB0E1
:202E6000069107920026069B1B78002B00F05F83069B1C4613F8012B1AB9069B9C4203D16B
:202E80000FE0252AF5D1F8E7069BD8F80400E51A0699D8F800302A469847002840F02A83E8
:202EA0002E442378002B00F042836378611C002B00F03D8300240A4611F8013B2B2B11D002
:202EC00006D8202B11D0232B12D144F00804F2E72D2B04D0302B0BD144F01004EBE744F0ED
:202EE0000104E8E744F00604E5E744F00204E2E7A3F1310108290DD8134600251A4613F82C
:202F0000011BA1F13000092811D80A2202FB0515303DF3E72A2B09D1079B01321D68191D70
:202F2000002D0791B8BF44F0010400E0002513782E2B1CD15178531CA1F1300009280ED835
:202F4000194600270A780B46A2F13000092801F101010FD80A2303FB0727303FF2E72A2955
:202F600006D1931C079A111D0791176802E013464FF0FF371A786C2A09D15A786C2A02D1F8
:202F800044F080040AE0013344F060040BE0682A09D15A78682A03D144F02004023302E0C5
:202FA000013344F040041A78642A3CD01FD8462A48D00DD8252A5AD003D8002A00F0B7822E
:202FC00057E0412A4AD0452A53D144F4424450E0582A31D004D8472A4BD144F4A13448E093
:202FE000612A38D0632A44D144F4A06441E06E2A3AD007D8662A22D027D3672A28D0692A26
:2030000011D036E0732A2CD006D86F2A11D0702A2FD144F440742CE0752A07D0782A28D125
:2030200044F4C85425E044F4245422E044F410641FE044F488541CE044F4B24419E044F46B
:20304000007416E044F4844413E044F4024410E044F481340DE044F4C1340AE044F4E13467
:2030600007E044F4806404E044F4E06401E044F4C0640133069304F4E063B3F5806F00F021
:20308000AA8116D8B3F5807F2BD0B3F5407F7FF4EAAE079BA04914F4804F03F104029F48C0
:2030A00018BF08460DF1330107920F461A680023C5E1B3F5C06F08D0B3F5E06F00F0318237
:2030C000B3F5A06F7FF4CFAE00E2D8F80030D8F80400934901229847002840F00B82013699
:2030E000C1E6002FACBF24F01004012714F40053039304F0E00337D0402B17D008D8DBB1B2
:20310000202B2AD1079B1A1D079293F9002017E0602B11D0802B20D1079B073323F0070353
:2031200003F108020792D3E900230AE0079B1A1D0792B3F9002003E0079B1A1D07921A681A
:20314000D317002A73F1000109DA524263EB4303CDE900234FF0010933E000220023CDE9BB
:2031600000234FF000092CE0402B16D007D8CBB1202B20D1079B1A1D07921A78EEE7602B8C
:2031800010D0802B17D1079B073323F0070303F108020792D3E90023E1E7079B1A1D079213
:2031A0001A88DBE7079B00211A1D07921B681846CDE90001D5E700220023CDE900234FF067
:2031C000000904F4C053B3F5805F0CD0B3F5C05F33D0B3F5006F4FD1DDE900230DF1360A50
:2031E000CDE9042304E0DDE900230DF1360A15E0DDE9042313433AD0DDE904010A2200238B
:20320000FCF71EFFDDE9040130320AF8012D00230A22FCF715FFCDE90401E9E752EA030120
:2032200025D002F0070130310AF8011DD10841EA4371D8080A460346F0E7384B14F4804FBC
:203240000DF1360A344908BF1946DDE9002352EA03000CD002F00F00085C4FEA131E0AF8B8
:20326000010D100940EA037002467346EFE70DF1360BCAEB0B0B03E00DF1360A4FF0000B3E
:2032800041F6080241F208035F4502EA04028CBFCBEB070700279A4202D1002F08BF012716
:2032A00041F608018A4207EB0B030DD1DDE9000150EA010208D01B4914F4804F1A4A4FF06A
:2032C000020C18BF0A4602E04FF0000C62460399A1B1B9F1000F0AD104F0060102290AD062
:2032E0000629124904BF4FF0010C0A4606E04FF0010C0F4A02E00F4A4FF0010C63449D424D
:203300008CBFED1A002514F0010922D1E30613D52F444D461DE000BFC71E0100D81E0100C5
:20332000FA1E0100EC1E0100E91E0100F11E0100EF1E0100851D010040462946CDF80CC01A
:203340000092FFF76FFD009ADDF80CC0002840F0D180BCF1000F0DD01146D8F800306246FD
:20336000D8F80400CDF800C09847DDF800C0002840F0C0803C465E44102CD8F800300DD9A2
:20338000D8F804006C491022CDF800C09847002840F0B080103CDDF800C0EDE75CB1D8F8F4
:2033A000040065492246CDF800C09847DDF800C0002840F09F80D8F80030D8F80400514618
:2033C0005A4666449847002840F094803E44B9F1000F79D073E0079BD3F800A01A1D0792A4
:2033E000BAF1000F09D05346994699F800200133002AF9D1CAEB090903E0DFF840A14FF048
:203400000609002F02DBB94528BFB9464D458CBFC9EB0505002514F0010405D14046294619
:20342000FFF700FD002865D1D8F80030D8F8040051464A46984700285CD14E443EE052EA20
:20344000030E0ED002F00F0E10F80EE04FEA131C01F801ED4FEA121E4EEA037E72466346A6
:20346000EDE70B467F1A01BF3022012701F1FF3301F8012C03377822BD4203F8012C4FF0D0
:20348000300203F8022C88BFED1B4FF0230298BF002514F00104A3F1030903F8032C04D1FA
:2034A00040462946FFF7BEFC20BBD8F80030D8F8040049463A469847E0B93E4424B1404654
:2034C0002946FFF7AFFCA8B92E44CCE4079B012D03F104021B688CBF05F1FF35002514F06E
:2034E000010407928DF8203008D140462946FFF799FC10B14FF0FF301AE02E44D8F8003065
:20350000D8F8040008A9012298470028F2D16F1C2CB140462946FFF785FC0028EAD13E4400
:20352000A1E4079B1A1D1B6807921E609BE430460FB0BDE8F08F00BF0C1F0100F31E0100BE
:203540000FB407B504AA52F8041B04480192FFF783FC03B05DF804EB04B07047B807002040
:203560001FB5084C8DE80300114602A81A460294CDF80CD0FFF770FC009B00221A7004B0B6
:2035800010BD00BFFD07010010B50C200121FFF7F3F9BDE81040014B5B681847B819010070
:2035A000014B9B68184700BFB8190100014B1B6A184700BF140F0100014B5B6A184700BF8A
:2035C000140F010008B5054B1B68984730EA200028BF1520C0F17D0008BD00BFB81901007E
:2035E00013B5FFF7FFF8032835D0FFF7D9FF002831DB0E20FFF7DAF918490CF0B2FE38B1F7
:203600000D20FFF7D3F915490CF0ABFE18BB04E0FFF7D4F90028F3D11DE0FFF7A9FA044672
:2036200008B9FFF7CBFA0820FFF7AEF978B102238DF8043000238DF80530FFF7CFF88378AD
:2036400003218DF80630064B01A8DB68984714B9044B9B68984702B010BD00BF723300206E
:20366000140F0100E019010070B590F82D200124012AD4BF0332052205469440FDF748FB9D
:20368000013CB0FBF4F12B4601FB1401034A05F10C00BDE87040FEF7E1BA00BF2937000088
:2036A0002DE9F0470D4614468B680746506BD3F80090D3F8048092F82C600CF05AFD686832
:2036C000FEF7CAFEA96814480CF0ADFD134829460CF0A9FD606B0CF042FD40B1002384F818
:2036E0002C3084F82D302046FFF7BEFF0BE004F10C00FEF7D9FA0A4821460CF03AFD09488B
:2037000021460CF090FD484641463A463346BDE8F0470CF060BE00BFC0070020CC0700201C
:20372000041C0020D80700202DE9FF470446002800F0C480406B0CF012FD0546002800F02F
:20374000BD804068FEF79EFE5E490D20FFF722F901210820FFF710F9FFF716FF0028C0F2E0
:20376000AB80FFF73BF8584E90F802807768FFF735F88146FFF772F801464846B847FFF752
:203780001DF9D6F818900746C84700284FD15FB1B3680193FFF762F8019B984748B102284C
:2037A0000CBF0120042043E0F369984700283ED1EEE70FB100203BE00CF0B5FB8246F769C0
:2037C000B84710B1C84758B908E00CF0ACFB6FF0D903CAEB0303C342F1D4F3E7B84718B11C
:2037E0000CF0A1FB81460CE0736998470028F7D00CE00CF098FB6FF04003C9EB0303C342F8
:2038000002D5B8470028F4D0B84708B902200FE0336903A803219847032808D19DF80E0024
:20382000B0EB080018BF01200028C3D000E00120AA68002A42D0032839D8DFE800F00219D5
:203840000B3F94F82C300020013384F82D0084F82C302CE0002384F82D3094F82C3001333D
:20386000DBB284F82C30127A9A4219D802201EE094F82D300133DBB2052B83BF002384F8AF
:203880002D3094F82C3084F82D3084BF013384F82C3094F82C10137A994201D3012006E0B0
:2038A0002046FFF7E1FE68680CF0EFFC06E029462246FFF7F5FE01E00520B9E704B0BDE871
:2038C000F08700BF72330020140F01002DE9F04107460E208846FFF769F8454B05461A7875
:2038E000444C22B901221A70FDF712FA2070237813B9404B01221A70217807204B1C2370C7
:20390000FFF73AF80C200121FFF736F83A480CF026FC044640B1201D29460CF022FDD8B9DA
:2039200020460CF059FCF4E734480CF068FC044640B32946201D0CF011FD002304F13000DE
:20394000606384F82C3084F82D3023630CF004FC294821460CF021FC606B0CF036FC072858
:2039600010DC27480CF04BFC054698B9606B0CF02CFC38B9204821460CF0FBFB1F4821469E
:203980000CF051FC38464146BDE8F041042201230CF021BD1B480CF032FCA86008B3FEF79A
:2039A00039FD6860C8B10620AE68FEF7EDFFC0B208B1307201E00823337286E88001294697
:2039C000606B0CF0EAFB606B0CF0C9FB85420DD12046BDE8F041FFF747BE0A48A9680CF075
:2039E00022FC294606480CF01EFCBFE7BDE8F0818F3600207E360020041C0020D807002022
:203A0000CC070020C007002008B505480CF0E7FB04480CF0E4FBBDE8084003480CF0DFBBEF
:203A2000CC070020C0070020D807002010B509490B88C218B2F5A06F0AD8074C2288D04282
:203A400006D480B20244184408802280012010BD002010BDE2340020E4340020B0F5A06F91
:203A60009DBF024B1880012000207047E234002005289ABF024B33F810000020704700BF33
:203A80007A330020024803490C220DF01CB900BF7A33002086330020044A00231380044A0C
:203AA0001380044A1370FFF7EDBF00BFE2340020E4340020B136002010B5064C002120462E
:203AC0000C220DF026F9002323814FF6FF73238010BD00BF86330020F0B5144D85B005F1E5
:203AE00008030FCBEE798DE80F0000F091FF10486C460CF034FB074698B1D7F804C0BCF16B
:203B0000000F0AD00B4B20461A880B4B38321B8831462C3B2A449BB2E04738460CF05CFB6A
:203B2000E9E7FFF7B9FF05B0F0BD00BF34200020D81C0020E4340020E2340020F8B5204BD8
:203B4000204E1B7906F11805F371337E06F10804FF2B08D194E80F0085E80F002046294658
:203B600000F0B2FB1BE02746AE46174A3B4603CB7345106051601F4602F10802F6D195E81D
:203B80000F0084E80F00104B104C03F11005224618685968083303C2AB421446F7D100F033
:203BA00037FF0B4B81221B882833F418F2540023637063800CF09AFFC0436080F8BD00BFC1
:203BC0006C1E002034200020923300204C200020E434002038B504460B480D460CF0BFFA8C
:203BE00078B10379A34209D14379AB4204D183683BB19847002038BDFF2BF8D00CF0ECFA44
:203C0000EEE7012038BD00BFDC1C0020014601480CF0C3BADC1C00202DE9F74F474B82460B
:203C20001B7889463A2B9346454C0AD1454B1B882833E356002B04DB03B0BDE8F04FFFF71A
:203C40002BBF22893E4B72B95A8962B99A8952B9DA8942B91A8A32B95A8A22B99A8A12B954
:203C6000DB8A002BE8D0237AFF2BE5D0364B374D1B6B9847364AA846944605F110062B4651
:203C800003CBB342106051601D4602F10802F6D1304F314D3A882B4E303292B2B2F5A06F85
:203CA00028BF4FF4A0620023A5F130013A802846303ACDF804C0338000930DF00FF8009BEE
:203CC0006022637063803A23A371244BDDF804C01B7905F8302C283DE37195E80F0088E891
:203CE0000F009CF80030FF2B05D1BAF1040FA3D1B9F1020FA0D11649194800F0E5FA358847
:203D0000584605F12803E21804F803A082F801900CF0F2FE39882C352839605189B211488C
:203D20000CF096FD338828331C44002363800CF0DDFEC043608003B0BDE8F08FB1360020E0
:203D400034200020E4340020F01901004C20002092330020E2340020642000206C1E0020B8
:203D60003C200020342000202DE9F047824689469046184C602222703A22A271164A9DB203
:203D80001279291D002704F11806204689B2E271677067800CF05CFD5146102230460CF0D6
:203DA00092FF04F10800314600F08EFA0B4B2C351B8828331E1903F8049086F80180778015
:203DC0000CF094FEC043064B70801D80BDE8F04700F088BC342000206C1E0020E43400200E
:203DE000E234002008B50448FFF710FFBDE808400248FFF70BBF00BFE4070020F0070020A7
:203E00001FB502460C46074B11469B69684698476846214610220CF046FFB0FA80F040090F
:203E200004B010BDF019010070B506460A480D460CF095F9044660B13DB1A3689E4204D14E
:203E400020462946FFF7DCFF18B920460CF0C4F9F0E7204670BD00BF641E002030B50546D1
:203E60000C460E4B85B05B696846984721462846FFF7DAFF694604462846FFF7D5FF112308
:203E80002CB1844205D0013B03D06469F8E7204602E0231A5842584105B030BDF01901008B
:203EA0002DE9F843904606460F469946FFF7BCFF414604463046FFF7B7FF0546B8F1000FB4
:203EC0000CD058B92A46304641464FF0FF33FFF7E7FF054610B90020BDE8F8837CB9174853
:203EE0000CF08DF904460028F5D000234361214613480CF052F9134A13680133136007F1C2
:203F00000801A660C4F8049004F10C0008220CF0DAFE30463946FFF7A1FF50B1D4F8148057
:203F2000304665613946FFF799FF18B9C4F8148000E065612046BDE8F88300BFFC07002009
:203F4000641E0020E01C002008B5054B002205481A600CF044F9BDE8084003480CF0FCB88C
:203F6000E01C0020FC070020641E002070B5054615480CF0F4F804462CB320460CF02CF9FB
:203F800063680646B3B910480CF0E9F828B14369A34202D00CF020F9F8E70B4821460CF083
:203FA000E8F80A4821460CF03EF9094A1368013B136006E05A1C04D0AB428CBF5B1B0023B7
:203FC00063603446D8E770BD641E0020FC070020E01C002038B50C480CF0C1F804468CB15A
:203FE00020460CF0F9F80546214607480CF0C1F8214606480CF017F9054A2C461368013B7F
:204000001360ECE738BD00BF641E0020FC070020E01C002000487047A23300202DE9F34187
:204020000446154D00910E4690461F46019523461248032120220CF086FC01282B4616D1F6
:204040002A6804F11001107020462A68023250F8044B884242F8044BF9D11868089B86744B
:204060004361099B80F813800777836100E0002002B0BDE8F08100BF641F00206C1F0020B6
:2040800038B505460B4C0C4B236020680B4B98420BD2037833B1827C29460230D2080CF04E
:2040A00002FE20B123682033EEE7002038BD012038BD00BF641F00206C1F0020CC1F002039
:2040C00013B5084C80220346009201940648032120220CF038FC08B9206800E0002002B0D3
:2040E00010BD00BF681F0020841E002010B50C4A0C4B136013680C498B420DD2197849B1DF
:20410000411C02D0997C814204D148F2FE015C888C4202D02033ECE70023184610BD00BFD3
:20412000681F0020841E0020E41E002037B504460F4D80230093019523460E48052112227D
:204140000CF001FC01282B460ED12A6804F11001107020462A68023250F8044B884242F80E
:20416000044BF9D1186800E0002003B030BD00BF681E0020081F0020F7B50546204C802354
:2041800000930E46174601941E48032120222B460CF0D9FB012830D12A46236805F110010D
:2041A00018702368023352F8040B8A4243F8040BF9D12068C77416B90123037505E0002348
:2041C0000375314618300BF04EFF23680E480121997402234370FF220023027043808380FC
:2041E000C38003818372C17202736B7B4373EB89C381FFF79BFF206800E0002003B0F0BD8F
:20420000681F0020841E0020B233002013B5084C80220346009201940648052112220CF05E
:2042200092FB08B9206800E0002002B010BD00BF681E0020081F002038B50546C8B10D4877
:20424000022200244270FF230122C27244808480C4800481847203730370EB7B43732B8AAA
:20426000C381FFF7D3FF044A106008B10CF095FB2C7038BDB2330020681E002010B50E4BD5
:204280000E4C236020680E4B98420ED203784BB1037D3BB91830FDF76FFB18B1074B18687A
:2042A000FFF7CAFF23682033EBE700F083F9BDE8104004480BF0E8BE841E0020681F0020D8
:2042C000E41E0020CC1F00202DE9F84348F2FE030A8805469A42884621D00B78FF2B1ED012
:2042E0001B4B0024A1461F461A4A1A603E681A4A964218D233787BB1B37C012B0CD148F2F5
:20430000FE0372889A4207D04046B11C0CF05FFB484524BF3446814620363E60E6E70120B3
:20432000FFF7E4FE04464CB92C806C80AC80EC802C816C81AC81EC81BDE8F883A31C1234CD
:2043400053F8042BA34245F8042BF9D1BDE8F883681F0020841E0020E41E002010B5FCF765
:20436000D7FC0446FCF7D4FC054B24029A68A4B22044B0FBF2F302FB130000EB520010BD81
:204380006C1E002073B53D4B1A88B2B95A88A2B99A8892B9DA8882B91A8972B95A8962B9A3
:2043A0009A8952B9DA8942B9FD2119805A809A80DA801A815A819A81DA81314C00F024F9F6
:2043C00000F06CF8002160222E480CF0A2FC00212046F8220CF09DFC2B4B20221A702B4BE8
:2043E00018221A704FF4A06323604EF6602340262671A360FFF7B2FF4FF47A73236148F2D4
:20440000FE03314640F2FF260025E0602575204C2A46238065802B46A580E5802046009574
:204420000195FFF7FBFD20461A490CF0BAFA294601222046FFF7A0FE4FF480732046E381F3
:2044400026806580A580E58025816581A581FFF76DFE4FF40073204626806580A580E58003
:2044600025816581A581E381FFF760FE0A480C2102B0BDE870400BF0FEBD00BFA2330020E2
:204480006C1E00206C1F0020A3360020A2360020B2330020A7360020CC1F002008B50448C0
:2044A0000BF09DFEBDE8084002480BF055BE00BF080800201C20002038B505460A480BF051
:2044C0004EFE044678B1AC4209D1214606480BF050FE2146BDE8384004480BF0A4BE2046C4
:2044E0000BF07AFEEDE738BD1C2000200808002038B5054608B9002038BD09480BF02FFE6D
:2045000004460028F7D0201D294610220CF0CBFB18B120460BF060FEF2E7204638BD00BF47
:204520001C200020F8B50E46054608B90020F8BDFFF7DEFF044648B910480BF060FE044624
:204540000028F3D00E4821460BF036FE2B46251D03F110072A4618685968083303C2BB4218
:204560001546F7D136B104F1140031460BF07BFD002300E0012323772046F8BD0808002032
:204580001C20002038B50A480BF0E9FD044600255CB1251D28460CF03CFA08B1437C23B9ED
:2045A00020460BF019FE0446F2E7284638BD00BF1C20002010B50A480BF0D1FD044670B197
:2045C000237F43B904F11400FDF7D6F918B12046FFF772FFEFE720460BF0FEFDEEE710BD07
:2045E0001C20002010B5044640B1054B9B6C98472146BDE810400348FEF7AAB810BD00BF9F
:20460000F01901001408002008B5FEF79DFABDE8084002480249FDF7BBBF00BF1408002020
:20462000E545000070B504461E460C489DF81020059BFDF7E1FF054670B120462B4604F1B8
:20464000100250F8041B904243F8041BF9D1044B6E7428469B6C9847284670BD140800208F
:20466000F0190100014601480BF072BE140800200148FDF7A7BF00BF14080020014601480B
:204680000BF036BE14080020014601480BF047BE1408002013B5044601202146FEF796F905
:2046A00038B92046054BDB68019302B0BDE810401847FFF7F1F9002002B010BDE0190100FD
:2046C000002008B50146FEF781F9024618B904480221FDF72DFCBDE80840FFF7DDB900BF6A
:2046E0002408002070B5364A88B013881646002B63D0B3F5A06F3FD8324C238B6BB9638B30
:204700005BB9A38B4BB9E38B3BB9238C2BB9638C1BB9A38C0BB9E38C73B32B4D6B6B9847E6
:2047200050B3237EFF2B24D02848FFF7C9FC28B13388002B41D000F04BF83EE02B6C04A828
:204740009847E0B92148FFF79BFC90BB1F480CF05DF9044618B9FFF715FF68B12BE00CF0A2
:2047600053F940BB2046EB6C984720460CF050F902E00020FFF78EFFFFF78EF91DE004ACFC
:2047800020460CF046F9054678B902A821460CF013F906238DE828002A46204602A9012378
:2047A000FFF740FF05460028E6D02846FFF75AFFE0E7064CE4E70446E2E708B070BD00BF43
:2047C000E234002034200020F01901004C20002008B5012000F050F9034B1B881BB1BDE820
:2047E0000840FFF77FBF08BDE234002038B50388054614463BB140F23F32934215D00023B9
:204800000380032038BDFDF713FB234B4021187022480BF030FC00F0DFF8214B5B6898473E
:2048200040F23F332B80012038BD022906D11D4B1B88002BF4D0FFF7CBFFF1E70BD8012972
:20484000EED1002CECD0184B05201C6000F014F9FFF748FFE4E787290BD1144B9A69203367
:20486000A24204BF002223F8102C114A9342F5D1D6E78829D4D1094B9C4202D120460BF0A9
:204880000CFC0C4B9C42CBD120460BF006FC0028C6D0FFF7F3FCDBE7A6360020202000201B
:2048A000F0190100E2340020382600203425002034260020CC1F0020074B1B680BB1283350
:2048C00002E0064B1B681833186820B1044A11785A68FDF72DBB704730200020382600206C
:2048E000A636002073B5124D064628460BF0B4FF104B05F108011C882022001B80B2ADF89B
:204900000600BDF80600304480B20CF0D3F8BDF8062004F12801294492B20CF0CBF810B13F
:2049200040BA80B201E04FF6FF7002B070BD00BF34200020E434002070B50646457802211B
:20494000ED000835481CA8422BDA7218547802340C44AC421BDC735C012B20D002D3632BCB
:2049600002D007E081B2EDE7104B30469B6B9847A8B918E003F0C003802B08D0C02B02D072
:20498000402B0CD10FE00A4B1B7EFF2B0BD0084B04200221D21AFFF73FF9022070BDA1B297
:2049A000D0E7002070BD012070BD00BFF01901003420002008B5074AD379012B06D80021E3
:2049C00003200A46FFF728F9002008BD013BD371012008BD3420002008B5FFF76DF8FFF780
:2049E000D1FCFFF7FFF900F0A7FB074B4FF480621A800023054A00211A442033B3F5807F6E
:204A00001182F7D108BD00BFE83400203425002070B5154C238823B3144E03F127013288C3
:204A2000914203DBFFF738F800241BE01049114D0978283AA97103F128012944D21A05F160
:204A400028000CF04BF92088404200B2FEF7EEFF044638B131882846283989B20BF0F8FE49
:204A600000E00124204670BDE4340020E2340020B13600203420002004282DE9F34700F049
:204A80009381974B974D984903F13C0205282A600A60A8461C46894613D1944A1268128A11
:204AA000002A00F0DC8130332B600B60904B00221A80904B90481A80904B026008221A7051
:204AC00070E18C4D2E88272E40F2C9811B7803F0F003602B40F0C38120460BF0BDFE8642C9
:204AE000C0F0BD8120460BF0B7FE283081B2B1F5A06F298000F2B381814A002320461370CC
:204B00000BF0D7FE002800F0AA8104F12803C01A237A7C4FFF2B388000F0A1812046298815
:204B20000DF1070201230BF09DFE50B19DF807303BB9FFF701FF012800F09181022800F0B8
:204B40007681674E06F11800FFF7BAFA002863D106F11800FFF75AFB00285DD1327EFF2A0B
:204B600033D048F2FE01338B8B422ED033898B422BD06BB973895BB9B3894BB9F3893BB908
:204B8000338A2BB9618A19B9B18A09B9F38AE3B1218B534B79B9598B69B9998B59B9D98B8D
:204BA00049B9198C39B9598C29B9998C19B9DB8CB3F5807F09D02B88B3F5A06F40F2578143
:204BC000022000214FF4A06287E048F2FE032189994240F04481218B414B81B9598B71B9B1
:204BE000998B61B9D98B51B9198C41B9598C31B9998C21B9DB8CB3F5807F00F03081FF2AC4
:204C000000F02D814048FFF73BFA0246002840F026810120022160E0DFF8F0A00023304876
:204C200029888AF800300DF1070201230BF01AFE064600284ED09DF80730062B4AD0112BEE
:204C400068D03A2B00F0F7802C2B00F0088103D843B12B2B26D03DE03B2B00F000813C2B0A
:204C600007D037E09AF80030DA0733D443F001030CE09AF80030980706D559062AD443F0AD
:204C800040038AF8003003E043F002031F4A13703046FFF751FE012800F0E180022800F0C9
:204CA000C6800EE09AF800305A0713D4174A43F004031370F37823B1154BDB6B984748B1DB
:204CC00079E72B88A11B1944304689B20DF107020023ABE704200121321BFEF79DFFA6E091
:204CE00034200020342600203C26002038260020E6340020E234002030200020B0360020E0
:204D0000B1360020E43400204C200020AF360020F0190100FFF77CFE3B882344DB8D33B1D3
:204D20000BF0E7FE4FF6FF73984240F098803B8823445B8D002B00F09280594E594B33609D
:204D40003168594B994280F0A3800A8A002A00F09C803B882833E0184088904240F09580E9
:204D60004A8A002A40F086800B68002B40F086804B68002B40F082808B68002B7ED1CB687B
:204D8000002B7BD12B88494A303B49492B8000230B60C8F800204749C9F80020464A02201D
:204DA00008701380FFF788FD434E3188002956D0424C01F13002424B0831204689B21A8021
:204DC0000BF046FD60232370354B3E4F1B6839881A7D2831E2711122A27132886018083239
:204DE000002552BA8280C5801A8A657062525A8A04F1180642800FCB86E80F00314604F192
:204E00000800FFF761FA304B04F13C021A603E880BF06FFEC0433B88283626442833F0808A
:204E20002344DA8812B94FF6FF72DA806580214B00221A7030E00BF059FE4FF6FF739842DE
:204E40000DD13B882833E218E05C5178FEF7C2FE012801D1FEF720FE2B88002BE7D1FEF709
:204E60001BFE1A4A00231370124A137014E0FFF7A1FDDCE7E35A934207D175E71448102211
:204E80000BF011FF00283FF47DAF3368203356E701200421002220E702B0BDE8F08700BF59
:204EA0003826002034250020342600206420002030200020B0360020E634002034200020B9
:204EC000E2340020E434002034260020AF3600203C2000202DE9FF418D4CE379FF2B40F084
:204EE00011818C4E3388E21892F83020FF2A00F00981234493F82930002B40F00381864F15
:204F0000864D3B6014232B703288DFF824E22B7802F12C00BEF800E0C11871455CDA134446
:204F200003F12C02A0184078794B002800F0EA80A25C012A46D11A89194439607AB95A89AA
:204F40006AB99A895AB9DA894AB91A8A3AB95A8A2AB99B8A1BB9E38A002B00F0D380082236
:204F6000023102A80BF0AFFE6D480BF052FDDFF8C4810246C8F8000040B905230093019044
:204F800002A902236648FFF74DFB1BE0FFF76AFB0146002800F0B6803868082202300BF073
:204FA00082FE48B1404602A90BF049FD0028C0F2A980D8F8003003E0D8F800305A7C0AB987
:204FC00002225A742A7833881344234493F82D3002EBC3022A7097E720440430FFF770F81C
:204FE000504B4B4D18609846002800F08B802B8973B96B8963B9AB8953B9EB8943B92B8AB0
:2050000033B96B8A23B9AB8A13B9EB8A002B79D0434D2846FFF754F82F46002872D140F297
:20502000FF23228BA5F1080E9A4205F1100C19D16B8ABBB9AB8AABB9EB8A9BB92B8B8BB958
:205040006B8BB3F5807F0DD12B7FFF2B0AD195E80F008CE80F003388734430330FCB85E8FB
:205060000F0011E0304D2846FFF72AF8D8F80030834247D197E80F0085E80F003388234424
:2050800030330FCB87E80F00FEF706FD002560232370657065801E4828210BF0D9FB3A238D
:2050A000A371FF23E3713388882003F12802A118A0542C334D70D8F80010E018E022E2540C
:2050C0000231102204300BF0FEFD338802224033E718E254B8187A70144908220BF0F3FD8E
:2050E0002946062207F10A000BF013FE338828331C4465800BF0FAFCC04360805020FEF777
:20510000ADFC01E0FEF7C8FC04B0BDE8F08100BF34200020E434002044260020B236002085
:205120003C200020482600204C200020A7360020E2340020402600200148FEF767BD00BFFF
:20514000340800200C4AB82303FB0022002330B553821A46094CE1188D782DB11C5D8442F5
:2051600002BF00248C70013240F24C5171338B42F0D1104630BD00BF6C260020BF36002051
:20518000044B01221A70FD2100225A709970DA70704700BFB536002010B5144C0220A179D4
:2051A000FDF7EAFBA379112B02D1238D618D07E0062B09D10E4B1B8828331A1951881B5B82
:2051C0009942A8BF19460BE03A2B09BF084B00211B88283301BF1A19195D537843EA012121
:2051E0000120BDE81040FDF7C7BB00BF34200020E434002038B513780546087A83F00203FB
:2052000098421DD1487A5378984219D1887A9378984215D1C87AD378984211D1087B137950
:2052200098420DD1487B5379984209D1887B9379984205D1C87BD379984201D103201CE05A
:205240000B890F4C83B94B89B3F57F4F0CD18B89FE2B09D120680E3102220BF034FD236843
:2052600002200233236008E02068083108220BF02AFD2368012008332360A840C0B238BDA6
:205280005826002010B5074C01462378012B01D0002010BDA01C08220BF005FD0028F7D1B9
:2052A000204610BDB536002008B501460E20FDF771FB044B04489B6800219847BDE8084093
:2052C000FBF746BCC4190100B95A000070B5154A154D12682B78154C0E4615490144D018A6
:2052E00022680BF0F0FC23682878184480B2FDF76FFAFDF78FF8044608B9002070BD3046DE
:20530000FFF7D2FF2046FDF7BDF82046FDF7A4F8084B1B68012BF0D0043B012BEDD90120AD
:2053200070BD00BF5C2600200B3C00206026002034200020642600202DE9F04F934D944E9D
:20534000002389B02B7033700446FDF7C9FAFDF75BFA904A904B12681860A9469A460AB138
:20536000FFF71AFF06A80CB98C4900E021460AF0F5FF0420FEF77CFB01460620FDF7FCFABA
:2053800006A90E20FDF706FB854B9B699847854B0028186040F377833378DAF80010023329
:2053A000814FCA183A6008442632824280F06B830022CA547D48FFF765FF20B13B68802464
:2053C00001333B6005E07A48FFF75CFF0028F5D10446DFF8E4B19BF801109BF800000B0917
:2053E00043EA0013DBB29A0842EA8313DBB211F00F0FDDB200F00F000CD1BBF802204AB98D
:2054000010B911F0F00F23D03B6803F8015B3B6070251EE088B911F0F00F0ED1386823F0D5
:205420003F030B4300F8013B624902220BF04BFC3B68682503333B600BE038685E4904223E
:205440000BF041FC3B6803F8045B3B60602500E078259BF80630112B06D02BB13C2B03D089
:20546000A3F12B02012A01D845F0040568075CBF3A6802F8013B9BF8073058BF3A60402BE1
:2054800006D0FF2B07D0012B08D145F0010509E045F0020506E045F0030503E03A6802F82E
:2054A000013B3A60BBF80820434B82B95A8972B99A8962B9DA8952B91A8A42B95A8A32B94A
:2054C0009A8A22B9DB8A13B944F0400015E03848FFF7D8FE394B186088B13378DAF8001025
:2054E00002334078CA5C42EA0012CA5404203049334AFFF77FFE60F03F00C4B21BE048F276
:20550000FE03BBF808202C499A420CD14B8B53B98B8B43B9CB8B33B904200831284AFFF786
:2055200069FE2043E9E73868214910220BF0CBFB3B6810333B609BF81830DFF87C80FF2B7B
:205540007ED198F8192044F00803022ADBB239D1B8F81A10B1BBB8F81C1099BBB8F81E10DD
:2055600081BBB8F8201069BBB8F8221051BBB8F8241039BB98F8261021BB98F827203B6809
:2055800044F00B00C4B203F8012B8EE0B43600200B3C00204C2600205C260020041C0100FB
:2055A000C419010068260020582600204C2000203C20002036200020342000205026002039
:2055C000A7360020BBF81A00944968BB888B58BBC88B98B9088C88B9488C78B991F82400B0
:2055E00060B944F00A00C4B23868253100F8012B03220BF068FB3B68043356E0BBF81E0060
:20560000864988B9088C78B991F8220060B944F00900C4B23868233100F8012B05220BF004
:2056200052FB3B68063340E0102238687C4901930BF049FB3A68019B10323A601C4635E026
:2056400008F11800FFF71EFE764B0146186070B13378DAF80000023310F803E04A7844F0F3
:2056600004044EEA0202C254E4B200200EE048F2FE03B8F818209A4210D1B8F81A306BB92E
:20568000B8F81C3053B9B8F81E303BB908F1180106AAFFF7AFFD2043C4B207E038686049A3
:2056A00010220BF010FB3B6810333B60282389F800303B684FF0000C01935B4B0393039BD9
:2056C000DFF874B11F78112F40F0B880574F584A67444FF2B00C3988136849BA89B221F014
:2056E0000F0E1FFA8EFE581CE6451060DFF844C190461FD17A8852BA22F00F021204120CD2
:20570000724517D10199F3220A70DBF80010DCF80020981C0A44904280F0B5817A88C8F8AE
:205720000000110A3A88120A01EB021202F5AA625A7057E07A8852BA02F47F42B2F5704F41
:2057400017D10199F1220A70DBF80010DCF8002004330A449342CDF804C080F094810222D7
:2057600039460BF0B0FA7A88D8F80030120A9A701DE001F47F41B1F5704F1AD10199F2222D
:205780000A70DBF80000DCF80020191D02449142CDF804C080F07781394631F8022B981CFF
:2057A000120A5A7002220BF08EFAD8F80030033314E00199F0220A70DBF80010DCF8002035
:2057C00005330A449342CDF804C080F05C81394604220BF078FAD8F800300433DDF804C0B6
:2057E000C8F80030D8F80000DBF800E0DCF800200F4B811C72449142019380F044810222D5
:20580000B91D0BF060FA019B1A6802321A6099F80030083389F8003085E000BF342000204C
:205820004C200020502600203A2000205C20002058260020682600205C260020002F66D1DC
:205840000CF128030293924A791C0299134493F80180525C08BF03274FEAC808112A08F140
:205860000808039311D082B13C2A0ED02B3A012A0BD9884888490268DBF800E00968013254
:2058800071448A4280F0FF800260844ADFF804B2D2F800E0804ADBF80000126800EB080126
:2058A00072449142CDF814C080F0ED801946424604930BF008FADBF800105FFA88F0821E1A
:2058C0004A7099F80020029B024489F80020704ADDF814C0D25C4144112AC444CBF80010AD
:2058E000049B08D03AB13C2A05D02B3A012A8CBF0022012200E001227F00019867F01F0753
:205900003A4302700191002B7FF4D9AE0BE03C2F02D14FF0FF3793E72B2F00F0B2802C2FF2
:2059200001D102278CE7DFF874B13378DBF8002006A9D55413445C70564B594D1B680E206C
:205940009B1A3370FDF726F8534999F800302A8896F800800C68D21A02EB0801A1425F46E2
:2059600079DDC8EB0408A8F1040828F00708053CC8EB0202121B22EAE27224F0070532B1BE
:2059800002F1FF3B9BFBF5FB0BF1030B01E04FF0020BFCF739FD584575DDB8F1000F72DB00
:2059A000404B00221A60404BDAF80010B3F800B0081D0BF101021A8032780BF08FF9337862
:2059C000DAF8002004333370354EDFF8E8A0338899F800006FEA83436FEA9343C3F307239F
:2059E0001370338882F803B053704FEA1B23937006A9CAF80080FFF769FCB046D14600287E
:205A000041D02A4B05221A70244B1A6833886FEAC3436FEAD343C3F30723137033885370F4
:205A2000234ADAF8003016781E44B8F80030B6B29E4224D29B1BA342C8BF2B463A68F108BB
:205A40001171304606A9C9F80030FFF73FFCD0B1D9F80030E8E7DBF800000D494044194422
:205A60000BF031F9114B18782B881844104B1B78C01A80B2FCF7ACFE06A8FFF715FC012099
:205A800002E00127DCE6002009B0BDE8F08F00BF3420002058260020682600205C2600201C
:205AA000E234002064260020EA3400200B3C0020B43600206026002070B5124B0C461B685A
:205AC000154613B19B68084698470F4B0E201C60FCF76CFF0D4906460AF043FC80B930468B
:205AE00021462A46FCF7BCFF094B304621462A465B6C984720462946BDE870400AF0D9BF1E
:205B000070BD00BF4C26002064260020041C0100F0190100F8B505460023114A712404FB28
:205B20000324A278B2B96170FCF75CFE26460D4F0D4A3B7806F8035BC01A1568A0701D44A5
:205B4000FCF750FE3A782946821A30460BF0BBF8A078F8BD01330C2BDFD14FF0FF30F8BD18
:205B6000BF3600200B3C00205C2600202DE9F04115090F2D0746984602F00F0407D00F2C24
:205B800003D145B91024264615E04DB104E00F2C4FF0100500D1102438462A460BF093F8B4
:205BA0002A190F2A264605DC78190021C2F110020BF0AFF8A4B1C6F110000E4E3844316876
:205BC00022460BF080F8022C05D10A2D9FBFFF23FB72FE233B73326822443260BDE8F0814B
:205BE0002DB138464146BDE8F0410AF0DABEBDE8F08100BF582600202DE9F047074688467F
:205C00001646002A47D0434C0025A146238ABB4215D1638A9BB10D20FCF7C8FE01462046F0
:205C20000AF09FFB58B1ECB220463146FFF772FF002827DA0027DFF8E0A0B8460DE0B83467
:205C4000002D5DD10125E1E7A8450BD10AF1B80AB8F1000F10D14FF001083AF8063C002BF5
:205C6000F4D0F1E750460AF02CFA0028EED04046FFF768FA0744E9E7002F41DD20463146C9
:205C8000FFF748FF00283BDDB82303FB0595AB8A1844A8823AE0204DFF2435F8063C4FFAF7
:205CA00084F97BB328460AF00CFA10B13046FFF749FAB9F1FF3F03D135F8063C03B9F4B2CE
:205CC000012E05F1B80501D00126E6E765B26B1C16D0B8235D43DFF83C900D2009EB05064F
:205CE000A6F812803782FCF761FE014630460AF035FB05F11800484440210AF0DBF905E0D4
:205D0000FF2403E0B9F1FF3FDAD1D8E760B2BDE8F08700BF6C260020842600202DE9F04F6D
:205D20000D2087B0A24FA34EFCF740FE0024FCF7D1FE34703C70FCF767FD9F4D2860FCF7F8
:205D400051FDAA460097002800F06483FDF7A4FE0420FCF719FE994B2A6800B2186055783E
:205D6000137845EA032503F0F803C02B02D0E02B1CD03FE0009B90781B78D2780099043330
:205D8000C5F30A050B7042EA002029462246FFF733FFB0F1FF3F804600F03C83884CB82373
:205DA00003FB00444FF00109223427E0009BD178177990781A78C5F30A0505321A7041EA3A
:205DC00000203A462946FFF717FFB0F1FF3F804600F020837A49B82202FB0012B2F814A066
:205DE000A146AA4534BF4FF0000A4FF0010A4FF0010B33E2A046C1462546724C724B0022F2
:205E00001A70009ADAF800101278885C00F0F00EBEF1F00F04BF00F00F0018701B7802BFD4
:205E2000634801320270012B00F2F482009B604F1A7811F802C00CF0E003602B40F0DF81DD
:205E4000901C0A4492F801A0604B5FFA8AFB1BF0800F084418BF421C186018BF1A601CF0A4
:205E6000100F1F460CF0080232D1CDF804C0CAB9196803220131601C0AF025FF3A6812F86B
:205E8000041B8B083A6003F00F0242F060022270627803F0300343EA811302F00F02134372
:205EA000637012E060221968227011F8012B900800F0300002F00F0202436270A01C0222A1
:205EC0000AF001FF3A6803323A60DDF804C01AE002F0FF0092B91A681178C1F3830141F014
:205EE0006001217012F801EB60804FEA9E0101F0300141EA8E1161701A6004E060232370D1
:205F00000023637063800CF0040303F0FF0201922BB92E4A136813F8011BA17113601CF08F
:205F2000030C0BBF294A2A4B136813F80C3009BF13F8011BE3711360E1711AF0400FCAF3C0
:205F400001124DD01BF0800F1FBF1B49009B09681B780FBF00215B189978090922B904F141
:205F6000080C9AB9114614E01A4B1878012805D1587888420CBF1946002100E00021164B34
:205F800019600029EBD1CB468A4666E1124B19680231124B0D200391CDF808C09F5CFCF7D1
:205FA00005FDDDF808C003460399604621E000BF0B3C0020B43600205C260020542600204A
:205FC0006C26002034200020B336002058260020431F0100B536002050260020471F010089
:205FE000924B0D209F5CFCF7E1FC9149034604F108003A46FFF7BAFD0AF008000AF003027E
:2060000000F0FF010AF00403B8B1002B50D1894B1B88ADF81430531E012B9FBF86490B683D
:2060200013F8010B0B60854B98BF8DF815009A5C04F1180005A9002338E063B31BF0800F81
:206040001FBF009B7E491B7809680CBF0B465B187C4918BF93F802A0087818BF0AF00F0341
:20606000012806D191F801A09A450CBF0F46002700E00027744B1F60002F00F0D380734B5B
:206080000E2013F802B0FCF791FCB91C03465A4604F118000AE0654B0E2013F802A0FCF762
:2060A00085FC52466249034604F11800FFF75EFD337804F1280B283333704FF0000AA31D9B
:2060C000019A5D4F002A7ED039680A7802F0F000E02840F04181481CC2F3420E12F0010294
:2060E0003860019208BF4878534A04BF02313960116818BF002011F8017B1160BEF1030F9B
:2061000000F2A880DFE80EF0080204062B2204E02C2202E03C2200E000221A70BA1CD21089
:20612000013A8BF801208BF800003A460BF10200CDF808B00AF0C7FD3F4930780A68029B05
:206140003A440A609BF801200132D200D1B208448A44307093445FFA8AFAB1E701310222BF
:2061600058460AF0B0FD396802220BF1020003310AF0A9FD3A6805323A60019B43B9022214
:206180000BF1060039680AF09EFD3A6802323A60FCF728FB2A4A39681268002D40F035819F
:2061A000C1EB020A0AF1080A82441FFA8AFA4FEA0A22337892B24FEA1A2A42EA0A0A08336B
:2061C000ABF804A033701E4A3B6812689B1A009A137075B9FCF706FB1D4BCB461B78AA4660
:2061E000C01A33782F461844283803122371607134E0A5F128031A12227163712AE0BCF150
:20620000410F40F00781531CDBB21944204628223B700AF058FD3B7828333B7033782833B4
:20622000337017E0CB46BA4617E000BF2E1F0100321F0100C80D010058260020341F010095
:206240005C260020B536002050260020471F01000B3C0020CB464FF0000A5746FCF7C2FA87
:20626000009B1A78824200F2D580FCF7BBFA6B4AFB0011789BB2421A3078DFF8B8E10344FD
:206280001344B3F5A06FCEF80020774600F2C2802CB1634B20441B6819440AF014FD002D12
:2062A00040D0B9F1000F0BD05E484FFA88F3B82404FB03033A683178114489B2998219845C
:2062C000BAF1000F35D0B8224FFA88F402FB04F354495548CA18114695822231128C0AF0F7
:2062E000F2FCDFF8549109F24C5A19F8012C5AB119F8033CA34207D119F8020C4A4B4946BA
:2063000003EBC0000AF0DFFC09F17109D145ECD15FFA88F0FEF716FFBBF1000F0CD0434BB3
:206320001D800EE0BBF1000F06D0BAF1000FF6D170E0BBF1000F6DD132783B6813443B4A4E
:2063400013803B4C236823B1FEF726FF23685B689847FEF7B5F95DE002F0F802F02A7FF424
:2063600032AF11221A700A7802F0040302F0F302DBB2F03A0193032A3FF66CAF01A353F866
:2063800022F000BF5D61000095630000B7630000D96300000131022258460AF094FC396801
:2063A000CA780431A2F5805292B2120242F0F002ABF8022027E058464A780231A2F58052B9
:2063C00092B2120242F0F00220F8022B02220AF07AFC3A680432CFE64A7802311209A2F534
:2063E000756292B2120242F0F002ABF8002011F8012C02F00F02A2F5756292B2120242F056
:20640000F002ABF802203960B7E6A5F12802CAEB020ACAE607B0BDE8F08F00BF0B3C00205D
:206420005C2600206C26002034200020E23400204C26002060260020C23600202DE9FF47B2
:20644000804616460F46002963D02AB9344A04B0BDE8F0470AF0E6B91488BCB95288C2B979
:20646000B3889BB9F2889AB933897BB94FF6FF72748994420CD1727B337B0092B27B01927D
:20648000F27B0292274A0AF0CDF945E0002400E01C46A246A14606EB09035B7816F8095039
:2064A00003EB0525ADB27DB9BAF1000F0FDB28D108EB0400391B1C4A0AF0B4F90444BC42F4
:2064C00029D24FF0010A1EE0BAF1000F0CDCB9F1000F0BD008EB0400391B144A0AF0A2F905
:2064E0000444BC4202D316E04FF0FF3A08EB0400391B0F4A2B460AF095F90444BC4202D35B
:2065000009E00AF1010A09F10209B9F1100FC2D101E0084600E0204604B0BDE8F08700BF27
:206520004B1F01005A1F01006D1F01006E1F0100701F010010B50A4B0A491B882C335A18EA
:20654000CC5C094B9078D1781A7B22B15B7BA34201D100F02BFFBDE81040FDF79DBA00BF60
:20656000E4340020342000205C2800202DE9F041394E8EB0262204A800210AF0CAFB374C68
:206580003388374D234493F82C302A7B8DF83230002A5CD06A7B9A4259D104F108030FCBC7
:2065A0008DE80F00102204A800210AF0B2FB3388E84603F12C0214442A4A1678E2782C3E88
:2065C000F61A2B7EF6B28DF833306378ADF830208DF835305B0608D505F11C00211D1022F8
:2065E0000AF061FB98BB14250CE004250AE0625D3AB363195F78052A07F1020705D0062A86
:2066000013D03D44B542F2DB1DE0DB780021102208A88DF834300AF07CFB9DF83420291D76
:20662000073208A82144D21008E05B79132F8DF83330E6DDA91D04A8214410220AF043FB40
:20664000DFE70127DDE7404604A900F089FEFDF723FA0EB0BDE8F081E4340020342000204D
:206660005C280020E23400202DE9F0479CB000215C2205A80AF04DFB08238DF82E300C23DC
:206680008DF82F3000238DF830308023ADF836304FF48063ADF834300123754CADF8243053
:2066A0001E238DF831303C23ADF832300DF1040804F108030FCB88E80F006E4A6E4B1778EA
:2066C0001B882C3FFF1A2C331D19E35C02218DF82C306B7828468DF82B300AF02CFA2B79C6
:2066E000ADF8260023F07F028DF82820C3F3C20203F007038DF82A306B798DF8292005A8B9
:2067000005F1080110228DF82D300AF0DCFAFFB21824BC4280F2A3802B5D1BB12A195678B1
:20672000023600E0012606EB0409B94500F39B80023B062B00F29780DFE803F004314E95C7
:2067400095957900052E40F38E802B19D9781A79490041EAD2118DF86910C2F3011102F0EC
:206760000F0298788DF86B205A798DF868008DF86A108DF86C2000286FD0072806D128463D
:20678000A11D0AF0D8F9ADF86E0066E002286AD19A79DB798DF86E208DF86F305DE0082EA1
:2067A00061DD2B1993F802A0DB782846211D8DF84D308DF84CA00AF0A9F90AF10702D21036
:2067C000D31DB34212904EDABAF1800F4BD804F108010EA829443EE0102E44D12E19F37869
:2067E000A11D8DF82E30337928468DF82F3073798DF830300AF09FF904F10801ADF83400C0
:2068000028460AF098F904F10A01ADF8360028460AF091F9737BADF8240004F10E01284689
:206820008DF831300AF087F9ADF8320015E0202E19D12B199A78DB7804F1080128468DF85A
:2068400064208DF865300AF061F904F110011890294414A810220AF036FA4C4659E74046BB
:2068600005A900F0A1FCFDF717F91CB0BDE8F08734200020E2340020E434002008B5084BFF
:206880001B7B43B10748017E0830A1F1FF035942594100F04FFDBDE80840FDF7FDB800BF0E
:2068A0005C2800203420002010B5044600F0EAFB084B09491B8800222C33581842700748A2
:2068C000CA54944218BF2046BDE810409B210223FDF74ABAE434002034200020EC340020CD
:2068E0002DE9F74F804600F0CDFB01F011FC18B1B8F1000F00F0C880654B664D1B88664A51
:20690000697B2C339C18D15495F85430637001F0FFFB18B1FF23A370E37005E020460221CD
